:100000000C942A000C94DF030C9409040C94330420
:100010000C9447000C9447000C9447000C94470044
:100020000C9447000C9447000C9447000C94470034
:100030000C9447000C9447000C9447000C94470024
:100040000C94D2010C9447000C9447000C94470088
:100050000C94470011241FBECFE5D8E0DEBFCDBF12
:1000600010E0A0E6B0E0EEEBF8E002C005900D92E3
:10007000A239B107D9F720E0A2E9B0E001C01D9292
:10008000A939B207E1F70E94B2010C945D040C9407
:10009000000061E086E10E94190361E087E10E94AF
:1000A00019038FE18093950080939700109294003C
:1000B00008959DEC899F912D11249695969596957E
:1000C000392F330F232F220F220F230F821B8093F0
:1000D00096009093980061E086E10E941903E091F8
:1000E0009600F0E0E859FF4F6081660F80E00E94C3
:1000F000CF0360E087E10E9419038FEC97E001973E
:10010000F1F700C0000061E087E10E941903E0916F
:100110009800F0E0E859FF4F6081660F80E00E9490
:10012000CF0360E086E10E9419038FEC97E001970E
:10013000F1F700C000000895CF9344C0809194006F
:10014000811130C08AE10E949C0381110EC0809110
:1001500095008F5F809395002FEF84E39CE0215002
:1001600080409040E1F700C000008BE10E949C03BA
:1001700081110EC0809195008150809395002FEFE2
:1001800084E39CE0215080409040E1F700C00000F3
:100190008091950080939700809194008F5F809369
:1001A000940010C0813071F4809197008093950085
:1001B0000E9459008FE19EE40197F1F700C0000012
:1001C000109294008CE10E949C03882309F4B6CF1E
:1001D00080919500815080939500C0E005C080918A
:1001E00095000E945900CF5FC83CC8F38AE10E9485
:1001F0009C0381110DC080919700809395009FEF23
:1002000020E782E0915020408040E1F700C00000EC
:100210008BE10E949C0381110AC08BE10E949C0328
:100220008823D9F38BE10E949C038130D9F380911C
:100230009500811112C061E085E10E94190304C09C
:10024000809195000E9459008DE10E949C038130AD
:10025000B9F3809197008093950060E085E10E945A
:100260001903CF910895CF93C82F60E083E00E94D7
:1002700019036C2F661F6627661F8CE00E94190306
:10028000C6FB662760F98AE00E941903C5FB662752
:1002900060F989E00E941903C4FB662760F988E0D1
:1002A0000E94190361E082E00E9419038FEC97E03D
:1002B0000197F1F700C0000060E082E00E9419039E
:1002C0008FEC97E00197F1F700C00000C3FB6627B1
:1002D00060F98CE00E941903C2FB662760F98AE08E
:1002E0000E941903C1FB662760F989E00E94190387
:1002F0006C2F617088E00E94190361E082E00E9427
:1003000019038FEC97E00197F1F700C0000060E05F
:1003100082E00E9419038FEC97E00197F1F700C08B
:100320000000CF9108952FE788E391E021508040AD
:100330009040E1F700C0000082E00E94330188E2B3
:100340000E9433018CE00E94330181E00E9433015E
:100350008FEC97E00197F1F700C0000086E00E9463
:10036000330108950E9409030E9493010E944900ED
:100370000E949C00FDCF90919300911112C096B104
:10038000986096B996B1906296B997B1907E97B9F8
:1003900097B1892B87B986B1806486B981E0809353
:1003A000930008951F920F920FB60F9211242F936E
:1003B0003F934F935F936F937F938F939F93AF93ED
:1003C000BF93EF93FF9310929300E0916000F09140
:1003D00061000995809192000E94BB01809192007A
:1003E000813011F41092920080919200811103C02B
:1003F0008F5F80939200FF91EF91BF91AF919F919A
:100400008F917F916F915F914F913F912F910F90BD
:100410000FBE0F901F901895982F97708695869510
:100420008695613009F455C020F0623009F4A1C00E
:1004300008958130C1F028F0823039F18330B9F16C
:1004400008954AB321E030E0B90102C0660F771F7A
:100450009A95E2F7CB01942F982B9ABB9BB380958A
:1004600089238BBB089547B321E030E0B90102C076
:10047000660F771F9A95E2F7CB01942F982B97BBC5
:1004800098B38095892388BB089544B321E030E078
:10049000B90102C0660F771F9A95E2F7CB01942F3E
:1004A000982B94BB95B38095892385BB089541B360
:1004B00021E030E0B90102C0660F771F9A95E2F79C
:1004C000CB01942F982B91BB92B38095892382BB4B
:1004D00008958130C1F028F0823039F18330B9F1CC
:1004E00008954AB321E030E0B90102C0660F771FDA
:1004F0009A95E2F7CB018095942F98239ABB9BB3F2
:1005000089238BBB089547B321E030E0B90102C0D5
:10051000660F771F9A95E2F7CB018095942F982369
:1005200097BB98B3892388BB089544B321E030E09A
:10053000B90102C0660F771F9A95E2F7CB0180954B
:10054000942F982394BB95B3892385BB089541B319
:1005500021E030E0B90102C0660F771F9A95E2F7FB
:10056000CB018095942F982391BB92B3892382BBB2
:1005700008958130C1F028F0823039F18330B9F12B
:1005800008954AB321E030E0B90102C0660F771F39
:100590009A95E2F7CB01962F909594239ABB9BB343
:1005A000892B8BBB089547B321E030E0B90102C02D
:1005B000660F771F9A95E2F7CB01962F90959423BB
:1005C00097BB98B3892B88BB089544B321E030E0F2
:1005D000B90102C0660F771F9A95E2F7CB01962FFB
:1005E0009095942394BB95B3892B85BB089541B313
:1005F00021E030E0B90102C0660F771F9A95E2F75B
:10060000CB01962F9095942391BB92B3892B82BBFB
:100610000895CF93C0E009C0EC2FF0E0EE58FF4FF3
:1006200060818C2F0E940C02CF5FC032A8F3CF9163
:100630000895982F97708695869586956130E1F597
:10064000813099F028F08230E9F0833041F108954B
:100650004BB321E030E0B90102C0660F771F9A95D5
:10066000E2F7CB01842B8BBB089548B321E030E047
:10067000B90102C0660F771F9A95E2F7CB01842B70
:1006800088BB089545B321E030E0B90102C0660F90
:10069000771F9A95E2F7CB01842B85BB089542B36F
:1006A00021E030E0B90102C0660F771F9A95E2F7AA
:1006B000CB01842B82BB08958130A1F028F08230D9
:1006C000F9F0833059F108954BB321E030E0B901DE
:1006D00002C0660F771F9A95E2F7CB0180958423BD
:1006E0008BBB089548B321E030E0B90102C0660F2A
:1006F000771F9A95E2F7CB018095842388BB0895F4
:1007000045B321E030E0B90102C0660F771F9A952A
:10071000E2F7CB018095842385BB089542B321E0A5
:1007200030E0B90102C0660F771F9A95E2F7CB015E
:100730008095842382BB0895282F277086958695FF
:100740008695813079F028F08230A9F08330E1F08D
:1007500024C089B390E002C0959587952A95E2F769
:100760008170089586B390E002C0959587952A958B
:10077000E2F78170089583B390E002C09595879564
:100780002A95E2F78170089580B390E002C09595B4
:1007900087952A95E2F78170089580E00895813069
:1007A00041F028F0823039F0833039F008956BBB86
:1007B000089568BB089565BB089562BB08951F92B4
:1007C0000F920FB60F9211242F933F934F935F9385
:1007D0006F937F938F939F93AF93BF93EF93FF9309
:1007E000E0916600F0916700E230F10509F00995AB
:1007F000FF91EF91BF91AF919F918F917F916F91F9
:100800005F914F913F912F910F900FBE0F901F90CE
:1008100018951F920F920FB60F9211242F933F93AA
:100820004F935F936F937F938F939F93AF93BF93F8
:10083000EF93FF93E0916400F0916500E230F105E1
:1008400009F00995FF91EF91BF91AF919F918F9121
:100850007F916F915F914F913F912F910F900FBEBC
:100860000F901F9018951F920F920FB60F921124A0
:100870002F933F934F935F936F937F938F939F93A8
:10088000AF93BF93EF93FF93E0916200F091630009
:10089000E230F10509F00995FF91EF91BF91AF9119
:1008A0009F918F917F916F915F914F913F912F9188
:0E08B0000F900FBE0F901F901895F894FFCF79
:1008BE0002000200020002003F065B4F666D7D07DC
:1008CE007F6F00000000000000000000000000002C
:1008DE000000000000000000000000010202020201
:0208EE00000008
:00000001FF
